:020000040800F2
:100000006811002059020008910B00088D0B0008B0
:100010008F0B0008A1020008950C000800000000EA
:100020000000000000000000000000009D0100082A
:10003000A302000800000000F1010008B30B000853
:1000400073020008730200087302000873020008BC
:1000500073020008730200087302000873020008AC
:10006000730200087302000873020008730200089C
:10007000730200087302000873020008730200088C
:10008000730200087302000873020008730200087C
:10009000730200087302000873020008730200086C
:1000A000730200087302000873020008730200085C
:1000B000730200087302000873020008730200084C
:1000C000730200087302000873020008730200083C
:1000D000730200087302000873020008730200082C
:1000E000730200087302000873020008730200081C
:1000F000730200087302000873020008730200080C
:100100000000000000000000000000007302000872
:1001100073020008730200087302000873020008EB
:1001200073020008730200087302000873020008DB
:1001300073020008730200080000000000000000C5
:100140007302000873020008730200080000000038
:10015000000000000000000000000000000000009F
:100160000000000000000000730200087302000895
:100170007302000800000000000000000000000002
:100180000000000073020008DFF80CD000F076F8E1
:1001900000480047B50C0008681100202B4B196877
:1001A0000868B0E8F04F80F30988BFF36F8F4FF015
:1001B000000080F3118870470000000006480068C6
:1001C000006880F3088862B661B6BFF34F8FBFF353
:1001D0006F8F00DF00BF00BF08ED00E0DFF80C000C
:1001E000016841F470010160704700BF88ED00E0D4
:1001F000EFF30980BFF36F8F144B1A681EF0100FD6
:1002000008BF20ED108A20E9F04F106008B44FF0CD
:10021000500080F31188BFF34F8FBFF36F8F01F051
:10022000B5F84FF0000080F3118808BC1968086821
:10023000B0E8F04F1EF0100F08BFB0EC108A80F34A
:100240000988BFF36F8F704700BF00BF3C000020DC
:10025000EFF30580704700000648804706480047D6
:10026000FEE7FEE7FEE7FEE7FEE7FEE7FEE7FEE766
:10027000FEE7FEE71D0C000889010008064C074D4B
:1002800006E0E06840F0010394E807009847103466
:10029000AC42F6D3FFF77CFF241700084417000890
:1002A000FEE77047014880687047000008000020A2
:1002B000024881680278114481607047080000207C
:1002C000074810B5016841F010010160032000F0FB
:1002D00089F80F2000F006F800F024F8002010BD87
:1002E0000020024070B50D4D04464FF47A71287815
:1002F000B1FBF0F00A490968B1FBF0F000F032FC04
:1003000048B9102C07D200222146501E00F04AF8AE
:1003100000206C6070BD012070BD0000080000204E
:10032000140000201E4808B5816941F00101816177
:10033000816901F001010091C16941F08051C16101
:10034000C06900F080500090032000F04BF80022BC
:1003500011466FF00B0000F025F8002211466FF0F7
:100360000A0000F01FF8002211466FF0090000F0AB
:1003700019F800221146501F00F014F8002211460F
:10038000101F00F00FF800220F21901E00F00AF855
:1003900000220F21BDE80840501E00F003B8000005
:1003A00000100240F0B40E4B1B680C46C3F302234E
:1003B000C3F10705042D00D90425191D072901D211
:1003C000002300E0DB1E012606FA05F1491E21404C
:1003D00099409E40761E16403143F0BC00F0D9BBD8
:1003E0000CED00E0064900F0070208684FF6FF0335
:1003F000184040EA0220034A10430860704700009A
:100400000CED00E00000FA052DE9F0470F4605006D
:1004100069D04A4E306800F00700B84209D230680F
:1004200020F0070038433060306800F00700B84221
:1004300059D12878424C800705D56068A96820F01A
:10044000F000084360602878C0073DD0696801204B
:1004500001290DD0022923D05FF0020393FAA3F201
:10046000B2FA82F242F02002520904D0226803E07C
:100470004FF40033F2E7626A93FAA3F3B3FA83F31B
:1004800003F01F03984002422DD0606820F0030063
:1004900008436060FFF706FF804641F288390CE0B0
:1004A0004FF00073DAE700BFFFF7FCFEA0EB080196
:1004B000494502D90320BDE8F0876068696800F00B
:1004C0000C00B0EB810FEFD1306800F00700B842AC
:1004D0000BD9306820F0070038433060306800F0F6
:1004E0000700B84201D00120E5E72878400705D58C
:1004F0006068E96820F4E0600843606028780007DD
:1005000006D56068296920F4605040EAC100606047
:1005100000F022F86168F02292FAA2F201F0F001F4
:10052000B2FA82F2D140074A515CC84006490860DD
:100530000F20FFF7D7FE0020BDE70000002002409B
:100540000010024014170008140000200148006841
:100550007047000014000020144B10B55A6814486E
:1005600002F00C0104291DD008291BD14FF470148E
:1005700094FAA4F402F47011B4FA84F4E1400D4C3E
:10058000DB6A615C0F2494FAA4F403F00F03B4FA5D
:1005900084F4E340074C1034D203E35C03D5B0FB92
:1005A000F3F0484310BD0448484310BD001002401A
:1005B00000127A00F416000800093D002DE9F84FFA
:1005C000040071D02078FB4DC0074FF0010625D004
:1005D00068687704C0F38100012807D06868C0F319
:1005E000810002281BD16868C00318D597FAA7F0CC
:1005F000B0FA80F040F02000400901D0286800E007
:10060000686A97FAA7F1B1FA81F101F01F0106FAC1
:1006100001F1084265D060680028D2D061E06068CE
:10062000B0F5803F0BD010B1B0F5A02F17D02868DF
:1006300020F480302860286820F4802002E02868B8
:1006400040F480302860E86AA16820F00F00084379
:10065000E862606820B3FFF725FE80460AE028685C
:1006600040F480202860EAE7FFF71CFEA0EB0800BA
:10067000642872D897FAA7F0B0FA80F040F0200012
:10068000400901D0286800E0686A97FAA7F1B1FA3A
:1006900081F101F01F0106FA01F10842E4D020E0E7
:1006A000FFF700FE804607E0C7E000BFFFF7FAFD56
:1006B000A0EB08006428DCD897FAA7F0B0FA80F025
:1006C00040F02000400901D0286800E0686A97FAED
:1006D000A7F1B1FA81F101F01F0106FA01F1084218
:1006E000E4D12078DFF8D08280074FF0000A4FF085
:1006F000020759D568684FF0F80B10F00C0F07D0BF
:100700006868C0F3810002281BD16868C00318D450
:1007100097FAA7F0B0FA80F040F02000400901D02D
:10072000286800E0686A97FAA7F1B1FA81F101F050
:100730001F0106FA01F108422BD0206901287CD163
:1007400027E0206988B396FAA6F0B0FA80F048F85E
:100750002060FFF7A7FD814606E055E1FFF7A2FD07
:10076000A0EB0900022884D897FAA7F0B0FA80F02D
:1007700040F02000400901D0286800E0686A97FA3C
:10078000A7F1B1FA81F101F01F0106FA01F1084267
:10079000E4D028689BFAABF26169B2FA82F220F0E9
:1007A000F80091400843286025E0FFE796FAA6F19B
:1007B000B1FA81F148F821A0FFF774FD814605E008
:1007C000FFF770FDA0EB09000228CCD897FAA7F03C
:1007D000B0FA80F040F02000400901D0286800E025
:1007E000686A97FAA7F1B1FA81F101F01F0106FAE0
:1007F00001F10842E4D1207800076AD5A069A0B3CE
:1008000096FAA6F0B0FA80F008EB8000C0F8806499
:10081000FFF748FD814605E0FFF744FDA0EB090026
:100820000228A0D897FAA7F0B0FA80F040F0600054
:10083000B6EB501F02D128680CE077E197FAA7F0D9
:10084000B0FA80F040F06000B7EB501F01D1286A89
:1008500000E0686A97FAA7F1B1FA81F101F01F018F
:1008600006FA01F21042D7D033E0FFE796FAA6F07D
:10087000B0FA80F008EB8000C0F880A4FFF712FD0A
:10088000814605E0FFF70EFDA0EB090002289CD889
:1008900097FAA7F0B0FA80F040F06000B6EB501F76
:1008A00001D128680BE097FAA7F0B0FA80F040F089
:1008B0006000B7EB501F01D1286A00E0686A97FA20
:1008C000A7F1B1FA81F101F01F0106FA01F210421D
:1008D000D8D12078400774D5E8694FF00009C000EE
:1008E00009D4E86940F08050E861E8694FF00109F7
:1008F00000F08050009031480168C90512D40168A9
:1009000041F480710160FFF7CDFC834606E000BF33
:10091000FFF7C8FCA0EB0B00642875D827480068D7
:10092000C005F5D5E06801280AD008B1052811D026
:10093000286A20F001002862286A20F0040002E002
:10094000286A40F001002862E068C8B3FFF7AAFCFB
:1009500083460DE0286A40F004002862F0E700BFFB
:10096000FFF7A0FCA0EB0B0141F2883081424BD88D
:1009700097FAA7F0B0FA80F040F04000B6EB501FB5
:1009800001D128680BE097FAA7F0B0FA80F040F0A8
:100990004000B7EB501F01D1286A00E0686A97FA5F
:1009A000A7F1B1FA81F101F01F0106FA01F210423C
:1009B000D6D035E0001002400000424200700040F6
:1009C00000E034E0FFF76EFC834607E0FFF76AFCC7
:1009D000A0EB0B0141F28830814215D897FAA7F0BD
:1009E000B0FA80F040F04000B6EB501F01D128680B
:1009F0000CE097FAA7F0B0FA80F040F04000B7EBB7
:100A0000501F02D1286A01E083E0686A97FAA7F1D3
:100A1000B1FA81F101F01F0106FA01F21042D5D1BD
:100A2000B9F1000F03D0E86920F08050E861E06977
:100A300080B36968C1F38101022977D04FF08071DA
:100A40004F00022809D091FAA1F0B0FA80F048F8DE
:100A500020A0FFF727FC04465EE050468A4691FA44
:100A6000A1F1B1FA81F1C14648F82100FFF71AFC63
:100A7000804605E0FFF716FCA0EB0800022848D8E6
:100A800097FAA7F0B0FA80F040F02000400902D0B9
:100A9000286801E056E0686A97FAA7F1B1FA81F197
:100AA00001F01F0106FA01F10842E3D1D4E9081070
:100AB0000843696821F47411084368609AFAAAF03F
:100AC000B0FA80F049F82060FFF7ECFB044604E040
:100AD000FFF7E8FB001B02281BD897FAA7F0B0FA33
:100AE00080F040F02000400901D0286800E0686AEA
:100AF00097FAA7F1B1FA81F101F01F0106FA01F1AD
:100B00000842E5D01EE000BFFFF7CCFB001B022827
:100B100002D90320BDE8F88F97FAA7F0B0FA80F069
:100B200040F02000400902D0286801E00CE0686A2B
:100B300097FAA7F1B1FA81F101F01F0106FA01F16C
:100B40000842E1D10020E5E70120E3E74FF0E02192
:100B50000428086903D020F004000861704740F0C1
:100B60000400FAE710B5401EB0F1807F01D30120E8
:100B700010BD4FF0E02460610F21601700F009F80C
:100B80000020A06107202061002010BDFEE7FEE7E5
:100B900070470907090E002806DA00F00F0000F17F
:100BA000E02080F8141D704700F1E02080F8001468
:100BB000704710B5FFF77CFBBDE8104000F0A4B80B
:100BC00010B590B002200090012004901020002465
:100BD000059007946846FFF7F1FC00B1FEE70F208F
:100BE000CDE90A040C940D9400210AA80E94FFF795
:100BF0000BFC00B1FEE7FFF7A9FC4FF47A71B0FBE4
:100C0000F1F0FFF7AFFF0420FFF7A0FF00220F2154
:100C1000501EFFF7C7FB10B010BD0000144801685C
:100C200041F4700101601348016841F00101016065
:100C30004168114A114041600168104A1140016049
:100C4000016821F480210160416821F4FE014160C6
:100C5000C16A21F00F01C162016B094A11400163B1
:100C6000002181600249C00380390860704700009C
:100C700088ED00E0001002400CC07FF8FFFFF6FE98
:100C8000CCFC00FF012000F01FFBFBE7012000F07F
:100C90001BFBFBE7FEE702E008C8121F08C1002AA1
:100CA000FAD170477047002001E001C1121F002AED
:100CB000FBD170471CB5FFF703FBFFF781FF0B4823
:100CC0000024CDE900402346802209A10A4800F013
:100CD00011FC06480023001DCDE90040802207A139
:100CE000084800F007FC00F015FBFEE700000020BC
:100CF0005461736B20310000850C00085461736BE4
:100D0000203200008D0C000810B500F01FFC0128F7
:100D100003D0BDE8104000F0D7BB10BD2DE9F04175
:100D2000184C0F460546E6682068001D00F016FACC
:100D300038B9206890F82C1001208840216981433F
:100D40002161681C07D137B12168BDE8F0410E4828
:100D5000091D00F03BBA20683544B5424560216862
:100D600005D2A06BBDE8F041091D00F017BA606B19
:100D7000091D00F013FAA06A854200D2A562BDE801
:100D8000F08100003C000020540D00202DE9F041CE
:100D9000054600F027FA2E4CA068401CA060206891
:100DA0002C4F10B1606940B32DE02560A068012888
:100DB00029D1002606EB860007EB800000F0E0F961
:100DC000761C072EF6D323488C3000F0D9F9214841
:100DD000A03000F0D5F91F48B43000F0D1F91D481B
:100DE000C83000F0CDF91B48DC3000F0C9F91948D3
:100DF0008C3060631430A06305E02068E96AC06A43
:100E0000884200D82560606A401C6062E96A01205F
:100E1000226988401043206101EB810007EB8000CC
:100E2000291D00F0D3F900F0FDF9606900280CD00D
:100E30002068E96AC06A884207D207494FF08050AB
:100E40000860BFF34F8FBFF36F8FBDE8F0810000E4
:100E50003C000020780C002004ED00E070B5114E3D
:100E6000114C17E000F08AFA3068B8B100F0E0FBEE
:100E700000F0B8F9F068C568281D00F06FF9A068A7
:100E8000401EA0606068401E606000F0CBF92846FC
:100E900000F00CF860680028E4D170BD00F0C8FBD9
:100EA000F8E70000400D00203C00002010B504468B
:100EB000006B00F0CBF92046BDE8104000F0C6B949
:100EC00010484FF44061420706D0C01D0D4920F084
:100ED0000700411AC1F540610B4A00230144C2E9F1
:100EE00000030839103A21F0070111604B600B60D4
:100EF0000B1AC0E9001393604FF000405360D060BC
:100F0000704700007800002028000020074C4FF0B8
:100F10008056074DFFF7A2FF20680128FAD92E60FE
:100F2000BFF34F8FBFF36F8FF4E70000780C002002
:100F300004ED00E02DE9F0479A46DDE90984814699
:100F40006FF00303206B03EB82021044089D20F036
:100F50000706700707D0502080F31188BFF34F8F2A
:100F6000BFF36F8FFEE723180A5C83F834200A5C16
:100F700012B1401C1028F6D3002784F84370072DC7
:100F800000D30625E562C4E91157201D00F003F9DE
:100F900004F1180000F0FFF82461C5F10700646255
:100FA000A061E76484F8507052464946304600F02C
:100FB000BFF82060B8F1000F01D0C8F80040BDE8CC
:100FC000F087000030B5114900E011460A688242FE
:100FD000FBD34B685C18844203D1406818444860D6
:100FE000084643681C18944209D1084C103C2468F8
:100FF000A24209D052681A4442600A68126802602C
:10100000814200D0086030BD0460F9E7280000206C
:101010000648416B096829B1416BC968C9684968CC
:10102000816270474FF0FF31FAE700003C0000207A
:1010300008484068401C4FF0500080F3118804D0ED
:10104000BFF34F8FBFF36F8FFEE7BFF34F8FBFF339
:101050006F8FFEE7300000202DE9F04105460027A4
:1010600000F08CF9314E306808B9FFF729FFF068BD
:1010700005424BD1C5B3083568070ED005F007000F
:10108000C0F108000544680707D0502080F311889C
:10109000BFF34F8FBFF36F8FFEE72DB370688542AC
:1010A00034D82248103001460C6801E020460C4636
:1010B0006168A94202D221680029F7D131688C42C7
:1010C00024D007682168016060680837411B102937
:1010D0000FD96019420708D0502080F31188BFF360
:1010E0004F8FBFF36F8FFEE710E041606560FFF741
:1010F00069FF61687068401A7060B268904200D2FF
:10110000B060F06801430020C4E9000100F090FAEB
:10111000780707D0502080F31188BFF34F8FBFF3BB
:101120006F8FFEE73846BDE8F08100001800002010
:1011300010B5031F4FF080741C601B1F21F00101CC
:101140001960191F044B0B6014390A60091F6FF0F6
:10115000020244380A6010BD31100008D0E90132A3
:1011600001699A60D0E901235A604A68824201D13C
:1011700082684A60002202610868401E0860704769
:1011800000F108014FF0FF32C0E90112C1600161B6
:1011900000210160704700210161704730B50B6884
:1011A0005A1C02D000F1080202E0026904E0224663
:1011B000546825689D42FAD953684B6099608A60EB
:1011C000516008610168491C016030BD42684A6095
:1011D00093688B6093685960916008610168491C4D
:1011E00001607047502080F31188BFF34F8FBFF329
:1011F0006F8F0A494868401C486001280CD1084894
:10120000006810F0FF0F07D0502080F31188BFF363
:101210004F8FBFF36F8FFEE7704700003000002054
:1012200004ED00E00849486828B1401E486001D13B
:1012300080F311887047502080F31188BFF34F8FDF
:10124000BFF36F8FFEE700003000002070B500286C
:1012500027D0144DA0F108046168E868014207D165
:10126000502080F31188BFF34F8FBFF36F8FFEE7DD
:1012700022683AB1502080F31188BFF34F8FBFF33B
:101280006F8FFEE78143616000F078F860686968FD
:10129000084468602046FFF795FEBDE8704000F006
:1012A000C7B970BD1800002006484FF47A71006875
:1012B000B0FBF1F14FF0E020491E416107210161CF
:1012C000704700001400002010B5020014D00F4831
:1012D000006B38B1502080F31188BFF34F8FBFF3FC
:1012E0006F8FFEE700F04AF800211046FFF716FD69
:1012F00000F09EF9002807D105494FF080500860A2
:10130000BFF34F8FBFF36F8F10BD00003C00002074
:1013100004ED00E01CB515480024CDE9004023464B
:10132000802213A1144800F0E5F8012809D0401CE0
:101330001AD1502080F31188BFF34F8FBFF36F8F06
:10134000FEE7502080F31188BFF34F8FBFF36F8FFC
:1013500006484FF0FF312C38816201214161C460A1
:10136000BDE81C4000F040B81CBD00006800002033
:1013700049444C45000000000D0F00080248016B75
:10138000491C0163704700003C0000201448016BB9
:1013900011B10121C16170470021C1610169B1FA38
:1013A00081F1C1F11F0101EB81020E4951F8223098
:1013B0006BB101EB820101F108034A6852684A608F
:1013C0009A4201D152684A60D1680160704750204A
:1013D00080F31188BFF34F8FBFF36F8FFEE70000DC
:1013E0003C000020780C00201CB532480168324ACD
:1013F000914207D1502080F31188BFF34F8FBFF384
:101400006F8FFEE700682C49491E884207D15020A3
:1014100080F31188BFF34F8FBFF36F8FFEE727492B
:1014200008780190FF20087008788DF800009DF87A
:1014300000009DF8002000F0F000904207D05020FE
:1014400080F31188BFF34F8FBFF36F8FFEE79DF8D6
:1014500000001B4A00F0500010700720906005E06B
:101460009DF800305B008DF80030401E9DF8003084
:101470001B06F5D4000200F4E0609060019808704B
:101480000C482030016841F470010160016841F0AE
:1014900070410160FFF708FF00205060FEF79EFEDC
:1014A0000848016841F040410160FEF787FE0020D6
:1014B0001CBD000000ED00E071C20F4100E400E03F
:1014C0003000002034EF00E010B5502080F3118888
:1014D000BFF34F8FBFF36F8F00F046F818B1044988
:1014E0004FF080500860002080F3118810BD00008C
:1014F00004ED00E02DE9FF5F8346DDE90E879946A4
:1015000016468A469000FFF7A7FD05001AD0542022
:10151000FFF7A2FD040012D025630021CDE90241AE
:10152000CDE900874B46324651465846FFF702FD4B
:101530002046FFF72BFC012004B0BDE8F09F2846B1
:10154000FFF784FE4FF0FF30F6E7000005484169E1
:1015500019B1006B18B100207047012070470220BC
:10156000704700003C0000202DE9F0412E4C002780
:10157000206B40B1A069401CA061E06900B1012767
:101580003846BDE8F081E668761CE66013D1606BF2
:10159000006838B1502080F31188BFF34F8FBFF33C
:1015A0006F8FFEE7606BA16B6163A063206A401CD4
:1015B0002062FFF72DFDA06ADFF87080864209D314
:1015C000606B006880B1606BC068C56868688642FF
:1015D0000DD2A0622068C06A00EB800158F821009B
:1015E0000128CAD90127C8E74FF0FF30F1E7281DCD
:1015F000FFF7B4FDA86A18B105F11800FFF7AEFDBA
:10160000E86A0121226981401143216100EB8001D8
:1016100008EB8100291DFFF7D9FDE86A2168C96A36
:101620008842CDD30127CBE73C000020780C002076
:101630002DE9F0472C4D00242746286B38B1FFF7E1
:10164000D1FD286B401E2863286B40B146E0502036
:1016500080F31188BFF34F8FBFF36F8FFEE7A96848
:10166000224E0120D1B3A6F1B40980463068E8B11A
:10167000F068C46804F11800FFF770FD201DFFF743
:101680006DFDE06A2A6908FA00F11143296100EB57
:10169000800109EB8100211DFFF798FDE06A2968B0
:1016A000C96A8842E2D3C5F81C80DFE70CB1FFF7B6
:1016B000AFFCAC6944B14646FFF756FF00B1EE619E
:1016C000641EF9D10020A861E86938B108490127F2
:1016D00038070860BFF34F8FBFF36F8FFFF7A2FD8E
:1016E0003846BDE8F08700003C0000202C0D0020AB
:1016F00004ED00E002030405060708090A0B0C0DBF
:101700000E0F10100102030405060708090A0B0C4E
:101710000D0E0F1000000000000000000102030485
:1017200006070809441700080000002078000000A0
:10173000960C0008BC17000878000020F01000008C
:10174000A60C0008000000000000000001000000DE
:10175000100000000000000000127A0000000000ED
:101760000000000000000000000000000000000079
:101770000000000000000000AAAAAAAA00000000C1
:101780000000000000000000000000000000000059
:101790000000000000000000000000000000000049
:1017A0000000000000000000000000000000000039
:0C17B0000000000000000000000000002D
:040000050800018965
:00000001FF
