:020000040800F2
:100000008811002059020008B50B0008B10B000848
:10001000B30B0008C5020008390E000800000000FC
:100020000000000000000000000000009D0100082A
:10003000C702000800000000F1010008D70B00080B
:1000400073020008730200087302000873020008BC
:1000500073020008730200087302000873020008AC
:10006000730200087302000873020008730200089C
:10007000730200087302000873020008730200088C
:10008000730200087302000873020008730200087C
:10009000730200087302000873020008730200086C
:1000A000730200087302000873020008730200085C
:1000B000730200087302000873020008730200084C
:1000C000730200087302000873020008730200083C
:1000D000730200087302000873020008730200082C
:1000E000730200087302000873020008730200081C
:1000F000730200087302000873020008730200080C
:100100000000000000000000000000007302000872
:1001100073020008730200087302000873020008EB
:1001200073020008730200087302000873020008DB
:1001300073020008730200080000000000000000C5
:100140007302000873020008730200080000000038
:10015000000000000000000000000000000000009F
:100160000000000000000000730200087302000895
:100170007302000800000000000000000000000002
:100180000000000073020008DFF80CD000F088F8CF
:1001900000480047590E0008881100202B4B1968B1
:1001A0000868B0E8F04F80F30988BFF36F8F4FF015
:1001B000000080F3118870470000000006480068C6
:1001C000006880F3088862B661B6BFF34F8FBFF353
:1001D0006F8F00DF00BF00BF08ED00E0DFF80C000C
:1001E000016841F470010160704700BF88ED00E0D4
:1001F000EFF30980BFF36F8F144B1A681EF0100FD6
:1002000008BF20ED108A20E9F04F106008B44FF0CD
:10021000500080F31188BFF34F8FBFF36F8F01F051
:1002200037FB4FF0000080F3118808BC196808689C
:10023000B0E8F04F1EF0100F08BFB0EC108A80F34A
:100240000988BFF36F8F704700BF00BF5C000020BC
:10025000EFF30580704700000648804706480047D6
:10026000FEE7FEE7FEE7FEE7FEE7FEE7FEE7FEE766
:10027000FEE7FEE7410C00088901000840EA01039F
:100280009B0703D009E008C9121F08C0042AFAD24C
:1002900003E011F8013B00F8013B521EF9D2704710
:1002A000064C074D06E0E06840F0010394E80700C3
:1002B00098471034AC42F6D3FFF76AFF3C210008A0
:1002C0005C210008FEE77047014880687047000025
:1002D000280000200248816802781144816070473C
:1002E00028000020074810B5016841F010010160A6
:1002F000032000F089F80F2000F006F800F024F841
:10030000002010BD0020024070B50D4D04464FF492
:100310007A712878B1FBF0F00A490968B1FBF0F076
:1003200000F032FC48B9102C07D200222146501EA2
:1003300000F04AF800206C6070BD012070BD000024
:1003400028000020340000201E4808B5816941F0D3
:1003500001018161816901F001010091C16941F0F0
:100360008051C161C06900F080500090032000F00E
:100370004BF8002211466FF00B0000F025F8002228
:1003800011466FF00A0000F01FF8002211466FF0CE
:10039000090000F019F800221146501F00F014F86F
:1003A00000221146101F00F00FF800220F21901EAE
:1003B00000F00AF800220F21BDE80840501E00F0AE
:1003C00003B8000000100240F0B40E4B1B680C464E
:1003D000C3F30223C3F10705042D00D90425191D19
:1003E000072901D2002300E0DB1E012606FA05F1F1
:1003F000491E214099409E40761E16403143F0BC74
:1004000000F0D9BB0CED00E0064900F007020868D7
:100410004FF6FF03184040EA0220034A10430860E9
:10042000704700000CED00E00000FA052DE9F047F0
:100430000F46050069D04A4E306800F00700B84208
:1004400009D2306820F0070038433060306800F08F
:100450000700B84259D12878424C800705D560681A
:10046000A96820F0F000084360602878C0073DD0FC
:100470006968012001290DD0022923D05FF0020311
:1004800093FAA3F2B2FA82F242F02002520904D0A7
:10049000226803E04FF40033F2E7626A93FAA3F3B1
:1004A000B3FA83F303F01F03984002422DD0606833
:1004B00020F0030008436060FFF706FF804641F22A
:1004C00088390CE04FF00073DAE700BFFFF7FCFE5D
:1004D000A0EB0801494502D90320BDE8F087606818
:1004E000696800F00C00B0EB810FEFD1306800F0CC
:1004F0000700B8420BD9306820F00700384330605D
:10050000306800F00700B84201D00120E5E7287804
:10051000400705D56068E96820F4E0600843606042
:100520002878000706D56068296920F4605040EA01
:10053000C100606000F022F86168F02292FAA2F235
:1005400001F0F001B2FA82F2D140074A515CC84092
:10055000064908600F20FFF7D7FE0020BDE7000026
:1005600000200240001002402C210008340000202E
:10057000014800687047000034000020144B10B59B
:100580005A68144802F00C0104291DD008291BD117
:100590004FF4701494FAA4F402F47011B4FA84F4D1
:1005A000E1400D4CDB6A615C0F2494FAA4F403F083
:1005B0000F03B4FA84F4E340074C1034D203E35C35
:1005C00003D5B0FBF3F0484310BD0448484310BDC9
:1005D0000010024000127A000C21000800093D00C2
:1005E0002DE9F84F040071D02078FB4DC0074FF083
:1005F000010625D068687704C0F38100012807D080
:100600006868C0F3810002281BD16868C00318D550
:1006100097FAA7F0B0FA80F040F02000400901D02E
:10062000286800E0686A97FAA7F1B1FA81F101F051
:100630001F0106FA01F1084265D060680028D2D097
:1006400061E06068B0F5803F0BD010B1B0F5A02F2D
:1006500017D0286820F480302860286820F4802093
:1006600002E0286840F480302860E86AA16820F041
:100670000F000843E862606820B3FFF725FE80465C
:100680000AE0286840F480202860EAE7FFF71CFEB3
:10069000A0EB0800642872D897FAA7F0B0FA80F0AF
:1006A00040F02000400901D0286800E0686A97FA0D
:1006B000A7F1B1FA81F101F01F0106FA01F1084238
:1006C000E4D020E0FFF700FE804607E0C7E000BF6F
:1006D000FFF7FAFDA0EB08006428DCD897FAA7F032
:1006E000B0FA80F040F02000400901D0286800E016
:1006F000686A97FAA7F1B1FA81F101F01F0106FAD1
:1007000001F10842E4D12078DFF8D08280074FF071
:10071000000A4FF0020759D568684FF0F80B10F047
:100720000C0F07D06868C0F3810002281BD16868ED
:10073000C00318D497FAA7F0B0FA80F040F0200078
:10074000400901D0286800E0686A97FAA7F1B1FA79
:1007500081F101F01F0106FA01F108422BD0206956
:1007600001287CD127E0206988B396FAA6F0B0FA78
:1007700080F048F82060FFF7A7FD814606E055E1CC
:10078000FFF7A2FDA0EB0900022884D897FAA7F092
:10079000B0FA80F040F02000400901D0286800E065
:1007A000686A97FAA7F1B1FA81F101F01F0106FA20
:1007B00001F10842E4D028689BFAABF26169B2FA11
:1007C00082F220F0F80091400843286025E0FFE71E
:1007D00096FAA6F1B1FA81F148F821A0FFF774FD6D
:1007E000814605E0FFF770FDA0EB09000228CCD898
:1007F00097FAA7F0B0FA80F040F02000400901D04D
:10080000286800E0686A97FAA7F1B1FA81F101F06F
:100810001F0106FA01F10842E4D1207800076AD5E9
:10082000A069A0B396FAA6F0B0FA80F008EB8000B9
:10083000C0F88064FFF748FD814605E0FFF744FDFE
:10084000A0EB09000228A0D897FAA7F0B0FA80F030
:1008500040F06000B6EB501F02D128680CE077E151
:1008600097FAA7F0B0FA80F040F06000B7EB501FA5
:1008700001D1286A00E0686A97FAA7F1B1FA81F11C
:1008800001F01F0106FA01F21042D7D033E0FFE772
:1008900096FAA6F0B0FA80F008EB8000C0F880A4C9
:1008A000FFF712FD814605E0FFF70EFDA0EB090002
:1008B00002289CD897FAA7F0B0FA80F040F06000C8
:1008C000B6EB501F01D128680BE097FAA7F0B0FAF9
:1008D00080F040F06000B7EB501F01D1286A00E0C3
:1008E000686A97FAA7F1B1FA81F101F01F0106FADF
:1008F00001F21042D8D12078400774D5E8694FF052
:100900000009C00009D4E86940F08050E861E86956
:100910004FF0010900F08050009031480168C9058E
:1009200012D4016841F480710160FFF7CDFC834669
:1009300006E000BFFFF7C8FCA0EB0B00642875D8E9
:1009400027480068C005F5D5E06801280AD008B13D
:10095000052811D0286A20F001002862286A20F0BA
:10096000040002E0286A40F001002862E068C8B391
:10097000FFF7AAFC83460DE0286A40F004002862D5
:10098000F0E700BFFFF7A0FCA0EB0B0141F28830BD
:1009900081424BD897FAA7F0B0FA80F040F04000BF
:1009A000B6EB501F01D128680BE097FAA7F0B0FA18
:1009B00080F040F04000B7EB501F01D1286A00E002
:1009C000686A97FAA7F1B1FA81F101F01F0106FAFE
:1009D00001F21042D6D035E0001002400000424241
:1009E0000070004000E034E0FFF76EFC834607E053
:1009F000FFF76AFCA0EB0B0141F28830814215D869
:100A000097FAA7F0B0FA80F040F04000B6EB501F24
:100A100001D128680CE097FAA7F0B0FA80F040F016
:100A20004000B7EB501F02D1286A01E083E0686AFA
:100A300097FAA7F1B1FA81F101F01F0106FA01F26C
:100A40001042D5D1B9F1000F03D0E86920F08050F1
:100A5000E861E06980B36968C1F38101022977D058
:100A60004FF080714F00022809D091FAA1F0B0FA3E
:100A700080F048F820A0FFF727FC04465EE05046CF
:100A80008A4691FAA1F1B1FA81F1C14648F82100F4
:100A9000FFF71AFC804605E0FFF716FCA0EB080004
:100AA000022848D897FAA7F0B0FA80F040F020006A
:100AB000400902D0286801E056E0686A97FAA7F179
:100AC000B1FA81F101F01F0106FA01F10842E3D108
:100AD000D4E908100843696821F474110843686078
:100AE0009AFAAAF0B0FA80F049F82060FFF7ECFB20
:100AF000044604E0FFF7E8FB001B02281BD897FA26
:100B0000A7F0B0FA80F040F02000400901D028683A
:100B100000E0686A97FAA7F1B1FA81F101F01F01CC
:100B200006FA01F10842E5D01EE000BFFFF7CCFB5A
:100B3000001B022802D90320BDE8F88F97FAA7F01E
:100B4000B0FA80F040F02000400902D0286801E0AF
:100B50000CE0686A97FAA7F1B1FA81F101F01F0180
:100B600006FA01F10842E1D10020E5E70120E3E7C0
:100B70004FF0E0210428086903D020F00400086148
:100B8000704740F00400FAE710B5401EB0F1807FD6
:100B900001D3012010BD4FF0E02460610F216017E8
:100BA00000F009F80020A06107202061002010BD9E
:100BB000FEE7FEE770470907090E002806DA00F095
:100BC0000F0000F1E02080F8141D704700F1E020D4
:100BD00080F80014704710B5FFF77CFBBDE81040AB
:100BE00000F008BA10B590B00220009001200490E7
:100BF00010200024059007946846FFF7F1FC00B12F
:100C0000FEE70F20CDE90A040C940D9400210AA8F8
:100C10000E94FFF70BFC00B1FEE7FFF7A9FC4FF4C1
:100C20007A71B0FBF1F0FFF7AFFF0420FFF7A0FFF0
:100C300000220F21501EFFF7C7FB10B010BD0000AF
:100C40001448016841F4700101601348016841F0E3
:100C5000010101604168114A114041600168104A78
:100C600011400160016821F480210160416821F494
:100C7000FE014160C16A21F00F01C162016B094AA6
:100C800011400163002181600249C003803908607E
:100C90007047000088ED00E0001002400CC07FF8B3
:100CA000FFFFF6FECCFC00FF124C00230A2219467F
:100CB000A06900F0C5FE012804D000231A46194699
:100CC000E06914E0022000F00FFD00230A2219461B
:100CD000E06900F0B5FE012805D100231A46194647
:100CE000E06900F0A7FF00231A461946A06900F04A
:100CF000A1FFDAE700000020124C00230A22194667
:100D0000E06900F09DFE012804D000231A46194630
:100D1000206A14E0022000F0E7FC00230A221946B2
:100D2000206A00F08DFE012805D100231A461946DD
:100D3000206A00F07FFF00231A461946E06900F0A0
:100D400079FFDAE700000020124C00230A2219463E
:100D5000206A00F075FE012804D000231A461946C7
:100D6000606A14E0022000F0BFFC00230A2219464A
:100D7000606A00F065FE012805D100231A46194675
:100D8000606A00F057FF00231A461946206A00F0F7
:100D900051FFDAE700000020124C00230A22194616
:100DA000606A00F04DFE012804D000231A4619465F
:100DB000206814E0022000F097FC00230A22194664
:100DC000206800F03DFE012805D100231A4619468F
:100DD000206800F02FFF00231A461946606A00F0D1
:100DE00029FFDAE700000020124C00230A221946EE
:100DF000206800F025FE012804D000231A46194679
:100E0000A06914E0022000F06FFC00230A221946BA
:100E1000A06900F015FE012805D100231A461946E5
:100E2000A06900F007FF00231A461946206800F069
:100E300001FFDAE700000020FEE702E008C8121F09
:100E400008C1002AFAD170477047002001E001C1B3
:100E5000121F002AFBD170471CB5FFF743FAFFF7BA
:100E6000C1FE03220021012000F0C6FD514C0028E4
:100E7000A0617CD000231A46194600F0DBFEA06971
:100E80000028F6D000231A46194600F0D3FE0322AC
:100E90000021012000F0B0FDE061002868D00023AF
:100EA0001A46194600F0C6FEE06900287DD00023EE
:100EB0001A46194600F0BEFE03220021012000F070
:100EC0009BFD2062002871D000231A46194600F0CD
:100ED000B1FE206A002869D000231A46194600F0A6
:100EE000A9FE03220021012000F086FD6062002897
:100EF0005DD000231A46194600F09CFE606A002867
:100F000055D000231A46194600F094FE0322002112
:100F1000012000F071FD2060002849D000231A460E
:100F2000194600F087FE2068002841D000231A46A9
:100F3000194600F07FFE201D0024CDE90040234625
:100F400040221DA11E4800F05BFF1A480023083014
:100F5000CDE9004040221BA11C4800F051FF15487C
:100F600000230C30CDE90040402219A101E01BE034
:100F70001BE0194800F044FF0E4800231030CDE973
:100F80000040402215A1174800F03AFF094800230D
:100F90001430CDE90040402213A1154800F030FF85
:100FA00000F03AFCFEE701E0FEE7FEE7FEE7FEE7C1
:100FB000FEE70000000000205461736B2031000048
:100FC000A90C00085461736B20320000F90C000872
:100FD0005461736B20330000490D00085461736B3A
:100FE00020340000990D00085461736B2035000017
:100FF000E90D000810B500F02FFF012803D0BDE86F
:10100000104000F0E3BC10BD2DE9F041184C0F4634
:101010000546E6682068001D00F0B0FA38B920687F
:1010200090F82C1001208840216981432161681CBF
:1010300007D137B12168BDE8F0410E48091D00F025
:10104000D5BA20683544B5424560216805D2A06B09
:10105000BDE8F041091D00F0B1BA606B091D00F058
:10106000ADFAA06A854200D2A562BDE8F081000019
:101070005C000020740D00202DE9F041054600F0D1
:10108000C1FA2E4CA068401CA06020682C4F10B103
:10109000606940B32DE02560A068012829D10026B1
:1010A00006EB860007EB800000F07AFA761C072E2C
:1010B000F6D323488C3000F073FA2148A03000F0BA
:1010C0006FFA1F48B43000F06BFA1D48C83000F0CA
:1010D00067FA1B48DC3000F063FA19488C30606313
:1010E0001430A06305E02068E96AC06A884200D82D
:1010F0002560606A401C6062E96A012022698840BC
:101100001043206101EB810007EB8000291D00F0F6
:101110006DFA00F097FA606900280CD02068E96A3F
:10112000C06A884207D207494FF080500860BFF379
:101130004F8FBFF36F8FBDE8F08100005C0000208F
:10114000980C002004ED00E070B5114E114C17E032
:1011500000F096FB3068B8B100F076FF00F052FA6C
:10116000F068C568281D00F009FAA068401EA0605C
:101170006068401E606000F065FA284600F055F88F
:1011800060680028E4D170BD00F05EFFF8E7000061
:10119000600D00205C00002030B4026C0B46002A79
:1011A0000BD0C1681144C1604468A14201D30168F9
:1011B000C16030BC1846FFF761B830BC70472DE9FC
:1011C000F041856B174604460026026C82B1C7B118
:1011D000E068FFF753F8E168206C091AE1602268C3
:1011E000914202D26168081AE060022F16D017E01F
:1011F0002068A8B9606800F0A1FE06460020606083
:101200000EE0A068FFF73AF8216CA0680844A060DF
:101210006168884204D32068A06001E005B16D1EBA
:101220006D1CA5633046BDE8F08110B50446006B27
:1012300000F01CFA2046BDE8104000F017BA00008C
:1012400010484FF44061420706D0C01D0D4920F000
:101250000700411AC1F540610B4A00230144C2E96D
:1012600000030839103A21F0070111604B600B6050
:101270000B1AC0E9001393604FF000405360D06038
:10128000704700009800002048000020074C4FF0F5
:101290008056074DFFF758FF20680128FAD92E60C5
:1012A000BFF34F8FBFF36F8FF4E70000980C00205F
:1012B00004ED00E02DE9F0479A46DDE90984814616
:1012C0006FF00303206B03EB82021044089D20F0B3
:1012D0000706700707D0502080F31188BFF34F8FA7
:1012E000BFF36F8FFEE723180A5C83F834200A5C93
:1012F00012B1401C1028F6D3002784F84370072D44
:1013000000D30625E562C4E91157201D00F053F90A
:1013100004F1180000F04FF92461C5F10700646280
:10132000A061E76484F8507052464946304600F0A8
:101330000FF92060B8F1000F01D0C8F80040BDE8F7
:10134000F087000030B5114900E011460A6882427A
:10135000FBD34B685C18844203D140681844486052
:10136000084643681C18944209D1084C103C246874
:10137000A24209D052681A4442600A6812680260A8
:10138000814200D0086030BD0460F9E748000020C9
:1013900010B5044600F036F9A06B28B15FF00004E8
:1013A00000F050F9204610BD0124F9E70648416BD2
:1013B000096829B1416BC968C96849688162704789
:1013C0004FF0FF31FAE700005C0000200848406859
:1013D000401C4FF0500080F3118804D0BFF34F8FB2
:1013E000BFF36F8FFEE7BFF34F8FBFF36F8FFEE743
:1013F000500000202DE9F041044600F003F994F973
:10140000455004F1240609E0606A48B1304600F016
:10141000E1FD08B100F08EF96D1E6DB2002DF3DC18
:101420004FF0FF3684F8456000F00CF900F0EAF860
:1014300094F9445004F1100709E0206948B1384696
:1014400000F0C8FD08B100F075F96D1E6DB2002DF9
:10145000F3DC84F84460BDE8F04100F0F3B800002C
:101460002DE9F0410546002700F00AFA314E3068B8
:1014700008B9FFF7E5FEF06805424BD1C5B3083562
:1014800068070ED005F00700C0F1080005446807A2
:1014900007D0502080F31188BFF34F8FBFF36F8FB9
:1014A000FEE72DB37068854234D8224810300146DB
:1014B0000C6801E020460C466168A94202D221680E
:1014C0000029F7D131688C4224D007682168016077
:1014D00060680837411B10290FD96019420708D0EE
:1014E000502080F31188BFF34F8FBFF36F8FFEE75B
:1014F00010E041606560FFF725FF61687068401A81
:101500007060B268904200D2B060F0680143002081
:10151000C4E9000100F098FD780707D0502080F35F
:101520001188BFF34F8FBFF36F8FFEE73846BDE8DA
:10153000F0810000380000200449086818B10868EC
:10154000826C521C82640868704700005C000020B6
:1015500010B5031F4FF080741C601B1F21F00101A8
:101560001960191F044B0B6014390A60091F6FF0D2
:10157000020244380A6010BDCD130008D0E90132E0
:1015800001699A60D0E901235A604A68824201D118
:1015900082684A60002202610868401E0860704745
:1015A00000F108014FF0FF32C0E90112C160016192
:1015B00000210160704700210161704730B50B6860
:1015C0005A1C02D000F1080202E0026904E022463F
:1015D000546825689D42FAD953684B6099608A60C7
:1015E000516008610168491C016030BD42684A6071
:1015F00093688B6093685960916008610168491C29
:1016000001607047502080F31188BFF34F8FBFF304
:101610006F8F0A494868401C486001280CD108486F
:10162000006810F0FF0F07D0502080F31188BFF33F
:101630004F8FBFF36F8FFEE7704700005000002010
:1016400004ED00E00849486828B1401E486001D117
:1016500080F311887047502080F31188BFF34F8FBB
:10166000BFF36F8FFEE700005000002070B5002828
:1016700027D0144DA0F108046168E868014207D141
:10168000502080F31188BFF34F8FBFF36F8FFEE7B9
:1016900022683AB1502080F31188BFF34F8FBFF317
:1016A0006F8FFEE78143616000F0EAF86068696867
:1016B000084468602046FFF745FEBDE8704000F032
:1016C000C3BC70BD3800002006484FF47A71006832
:1016D000B0FBF1F14FF0E020491E416107210161AB
:1016E000704700003400002010B5020014D00F48ED
:1016F000006B38B1502080F31188BFF34F8FBFF3D8
:101700006F8FFEE700F0BCF800211046FFF77CFC6D
:1017100000F09AFC002807D105494FF0805008607E
:10172000BFF34F8FBFF36F8F10BD00005C00002030
:1017300004ED00E001490120C86170475C00002011
:1017400010B50C4650B1094909681831FFF736FF4A
:101750002046BDE810400121FFF756BC502080F321
:101760001188BFF34F8FBFF36F8FFEE75C0000203F
:1017700070B5040039D01D4DE06A2968C96A8842F5
:1017800033D2A069002804DB2868C06AC0F10700D2
:10179000A061E16A164E01EB8101606906EB8101EF
:1017A00088421FD1201DFFF7E9FE012150B9E06AF0
:1017B00000EB800256F8222022B92A6901FA00F0D3
:1017C00082432A612868C06AE0622A698140114325
:1017D000296100EB800006EB8000211DBDE8704010
:1017E000FFF704BF2868C06AE06270BD5C0000209B
:1017F000980C002028B107490A6A0260C968416054
:101800007047502080F31188BFF34F8FBFF36F8F65
:10181000FEE700005C0000201CB515480024CDE95F
:1018200000402346802213A1144800F0E9FA012861
:1018300009D0401C1AD1502080F31188BFF34F8F7C
:10184000BFF36F8FFEE7502080F31188BFF34F8FF7
:10185000BFF36F8F06484FF0FF312C3881620121B2
:101860004161C460BDE81C4000F040B81CBD0000F0
:101870008800002049444C45000000008D120008FB
:101880000248016B491C0163704700005C000020A6
:101890001448016B11B10121C16170470021C16180
:1018A0000169B1FA81F1C1F11F0101EB81020E4919
:1018B00051F822306BB101EB820101F108034A6853
:1018C00052684A609A4201D152684A60D168016008
:1018D0007047502080F31188BFF34F8FBFF36F8F95
:1018E000FEE700005C000020980C00201CB5324888
:1018F0000168324A914207D1502080F31188BFF32A
:101900004F8FBFF36F8FFEE700682C49491E884256
:1019100007D1502080F31188BFF34F8FBFF36F8F33
:10192000FEE7274908780190FF20087008788DF8B5
:1019300000009DF800009DF8002000F0F0009042AB
:1019400007D0502080F31188BFF34F8FBFF36F8F04
:10195000FEE79DF800001B4A00F0500010700720C1
:10196000906005E09DF800305B008DF80030401E6F
:101970009DF800301B06F5D4000200F4E060906092
:10198000019808700C482030016841F47001016032
:10199000016841F070410160FFF796FE0020506041
:1019A000FEF71CFC0848016841F040410160FEF769
:1019B00005FC00201CBD000000ED00E071C20F41DD
:1019C00000E400E05000002034EF00E010B55020AB
:1019D00080F31188BFF34F8FBFF36F8F00F04AFA87
:1019E00018B104494FF080500860002080F311883E
:1019F00010BD000004ED00E070B50E46050013D0E8
:101A0000D6B105FB06F04830FFF72AFD040009D0E7
:101A100004F1480120468EB10160C0E90F56012152
:101A200000F0C4F8204670BD502080F31188BFF349
:101A30004F8FBFF36F8FFEE70020E4E70060ECE715
:101A40002DE9FF4F002683B09B468A46040003D051
:101A5000BAF1000F08D011E0502080F31188BFF3D5
:101A60004F8FBFF36F8FFEE7206C38B1502080F3AB
:101A70001188BFF34F8FBFF36F8FFEE700F0ECF9D3
:101A8000DFF824814FF000094FF0805748B90598DE
:101A900038B1502080F31188BFF34F8FBFF36F8FA1
:101AA000FEE7FFF7AFFDA56B45B351462046E6685C
:101AB000FFF772FBBBF1000F13D0E660606A50B114
:101AC00004F1240000F086FA28B1C8F80070BFF3D2
:101AD0004F8FBFF36F8FFFF7B5FD012007B0BDE853
:101AE000F08F6D1EA563206810B9FFF725FD6060BB
:101AF00020690028EFD004F11000E3E7059808B151
:101B00001EB106E0FFF79EFD27E06846FFF772FE74
:101B10000126FFF797FDFFF7B3FEFFF773FD94F97A
:101B20004400401C01D184F8449094F94500401CC5
:101B300001D184F84590FFF785FD05A9684600F0BE
:101B400029F9002820460AD0FFF754FC00F07CFA5F
:101B50002046FFF71DFC0028A3D00020BEE7FFF7BA
:101B600017FCD8B1206830B9FFF74CFD6068FFF76B
:101B7000FFFDFFF767FD04F124000599FFF7E0FD85
:101B80002046FFF737FC00F05FFA002889D1C8F83B
:101B90000070BFF34F8FBFF36F8F82E72046FFF7D0
:101BA00029FC00F051FA7CE704ED00E070B50D4629
:101BB000040025D0FFF726FDD4E90F20216802FBA1
:101BC000001161600021A1632168A1600A46D4E987
:101BD0000F01401E00FB0121E16021464FF0FF3064
:101BE00001F8440F487004F110008DB1FFF7D8FCE4
:101BF00004F12400FFF7D4FCFFF724FD012070BDA1
:101C0000502080F31188BFF34F8FBFF36F8FFEE733
:101C100021690029F0D000F0DDF90028ECD004495A
:101C20004FF080500860BFF34F8FBFF36F8FE3E733
:101C300004ED00E02DE9FF4782B01D468A464FF0D3
:101C40000008040003D0BAF1000F08D011E05020C2
:101C500080F31188BFF34F8FBFF36F8FFEE7206CC7
:101C600038B1502080F31188BFF34F8FBFF36F8FCF
:101C7000FEE7022D0AD1E06B012807D0502080F347
:101C80001188BFF34F8FBFF36F8FFEE700F0E4F8CA
:101C90003F4F4FF000094FF0805648B9049838B1D3
:101CA000502080F31188BFF34F8FBFF36F8FFEE793
:101CB000FFF7A8FCA06BE16B884207D3022D05D08B
:101CC0000498D0B1B8F1000F1AD01EE02A46514650
:101CD0002046FFF774FA616A19B104F1240000F09C
:101CE00079F920B13E60BFF34F8FBFF36F8FFFF7DD
:101CF000A9FC012006B0BDE8F087FFF7A3FC22E0B5
:101D00006846FFF777FD4FF00108FFF79BFCFFF7F0
:101D1000B7FDFFF777FC94F94400401C01D184F82B
:101D2000449094F94500401C01D184F84590FFF798
:101D300089FC04A9684600F02DF830B12046FFF771
:101D400059FB00F081F90020D4E7FFF75BFCA06BA2
:101D5000E16B884213D1FFF775FC04F11000049980
:101D6000FFF7EEFC2046FFF745FB00F06DF9002879
:101D70009ED13E60BFF34F8FBFF36F8F98E7FFF7A1
:101D800061FC2046FFF736FB00F05EF990E70000AB
:101D900004ED00E070B50D46040019D005B3FFF75F
:101DA00031FC164AD1682868431C0FD02368126A98
:101DB000934202D062688A421AD96268891A8142C3
:101DC00016D2401A28602046FFF714FD002410E0C8
:101DD000502080F31188BFF34F8FBFF36F8FFEE762
:101DE000502080F31188BFF34F8FBFF36F8FFEE752
:101DF0000124FFF727FC204670BD00005C00002096
:101E00002DE9FF5F8346DDE90E87994616468A462F
:101E10009000FFF725FB05001AD05420FFF720FBA8
:101E2000040012D025630021CDE90241CDE90087ED
:101E30004B46324651465846FFF73CFA2046FFF7DC
:101E40001BF9012004B0BDE8F09F2846FFF70EFC07
:101E50004FF0FF30F6E700000548416919B1006B0B
:101E600018B1002070470120704702207047000021
:101E70005C0000202DE9F0412E4C0027206B40B182
:101E8000A069401CA061E06900B101273846BDE8A7
:101E9000F081E668761CE66013D1606B006838B1AB
:101EA000502080F31188BFF34F8FBFF36F8FFEE791
:101EB000606BA16B6163A063206A401C2062FFF726
:101EC00075FAA06ADFF87080864209D3606B0068FB
:101ED00080B1606BC068C568686886420DD2A06238
:101EE0002068C06A00EB800158F821000128CAD997
:101EF0000127C8E74FF0FF30F1E7281DFFF73EFB51
:101F0000A86A18B105F11800FFF738FBE86A01214B
:101F1000226981401143216100EB800108EB8100BF
:101F2000291DFFF763FBE86A2168C96A8842CDD39F
:101F30000127CBE75C000020980C002070B504005E
:101F40004FF0000140D0214D2868844207D0502036
:101F500080F31188BFF34F8FBFF36F8FFEE7A06C44
:101F600038B1401EA064636CE26A9A422CD040B142
:101F70002AE0502080F31188BFF34F8FBFF36F8F9B
:101F8000FEE7201DFFF7FAFA114A012150B9E06A75
:101F900000EB800352F8233023B92B6901FA00F0DB
:101FA00083432B61606CE062C0F10700A061E06ACE
:101FB0002B6981401943296100EB800002EB80000E
:101FC000211DFFF713FB0121084670BD5C000020B6
:101FD000980C00202DE9F041C068C468ACB104F150
:101FE00018000746FFF7CAFA154D286B0126A0B165
:101FF00039461448FFF7FAFAE06A2968C96A884244
:102000001CD90120EE61BDE8F081502080F31188D9
:10201000BFF34F8FBFF36F8FFEE7201DFFF7AEFAC0
:10202000E16A2A6906FA01F01043286101EB810098
:102030000449B43901EB8000211DDBE70020E2E711
:102040005C0000204C0D00202DE9F0472C4D0024B1
:102050002746286B38B1FFF7D5FA286B401E286356
:10206000286B40B146E0502080F31188BFF34F8FBA
:10207000BFF36F8FFEE7A968224E0120D1B3A6F10E
:10208000B40980463068E8B1F068C46804F118000B
:10209000FFF774FA201DFFF771FAE06A2A6908FA5F
:1020A00000F11143296100EB800109EB8100211D42
:1020B000FFF79CFAE06A2968C96A8842E2D3C5F84A
:1020C0001C80DFE70CB1FFF771F9AC6944B14646FB
:1020D000FFF7D0FE00B1EE61641EF9D10020A861C7
:1020E000E86938B10849012738070860BFF34F8F06
:1020F000BFF36F8FFFF7A6FA3846BDE8F087000000
:102100005C0000204C0D002004ED00E002030405FB
:10211000060708090A0B0C0D0E0F1010010203042C
:1021200005060708090A0B0C0D0E0F100000000031
:102130000000000001020304060708095C210008F2
:1021400000000020980000003A0E0008F42100086A
:1021500098000020F01000004A0E00080000000067
:10216000000000000000000000000000000000006F
:10217000000000000000000000000000000000005F
:10218000000000000100000010000000000000003E
:1021900000127A00000000000000000000000000B3
:1021A000000000000000000000000000000000002F
:1021B000AAAAAAAA00000000000000000000000077
:1021C000000000000000000000000000000000000F
:1021D00000000000000000000000000000000000FF
:1021E00000000000000000000000000000000000EF
:0421F00000000000EB
:040000050800018965
:00000001FF
